{
  "contractName": "EarnestMoney",
  "abi": [
    {
      "constant": false,
      "inputs": [
        {
          "name": "uuid",
          "type": "string"
        }
      ],
      "name": "cancel",
      "outputs": [],
      "payable": false,
      "stateMutability": "nonpayable",
      "type": "function"
    },
    {
      "constant": false,
      "inputs": [],
      "name": "kill",
      "outputs": [],
      "payable": false,
      "stateMutability": "nonpayable",
      "type": "function"
    },
    {
      "constant": false,
      "inputs": [
        {
          "name": "uuid",
          "type": "string"
        },
        {
          "name": "_closingAgent",
          "type": "address"
        }
      ],
      "name": "release",
      "outputs": [],
      "payable": false,
      "stateMutability": "nonpayable",
      "type": "function"
    },
    {
      "constant": true,
      "inputs": [
        {
          "name": "uuid",
          "type": "string"
        }
      ],
      "name": "getDepositAmount",
      "outputs": [
        {
          "name": "",
          "type": "uint256"
        }
      ],
      "payable": false,
      "stateMutability": "view",
      "type": "function"
    },
    {
      "constant": true,
      "inputs": [],
      "name": "getContractBalance",
      "outputs": [
        {
          "name": "",
          "type": "uint256"
        }
      ],
      "payable": false,
      "stateMutability": "view",
      "type": "function"
    },
    {
      "constant": true,
      "inputs": [
        {
          "name": "account",
          "type": "address"
        }
      ],
      "name": "getAccountBalance",
      "outputs": [
        {
          "name": "",
          "type": "uint256"
        }
      ],
      "payable": false,
      "stateMutability": "view",
      "type": "function"
    },
    {
      "constant": false,
      "inputs": [
        {
          "name": "uuid",
          "type": "string"
        }
      ],
      "name": "deposit",
      "outputs": [],
      "payable": true,
      "stateMutability": "payable",
      "type": "function"
    },
    {
      "constant": false,
      "inputs": [
        {
          "name": "uuid",
          "type": "string"
        }
      ],
      "name": "register",
      "outputs": [],
      "payable": true,
      "stateMutability": "payable",
      "type": "function"
    },
    {
      "constant": false,
      "inputs": [
        {
          "name": "uuid",
          "type": "string"
        }
      ],
      "name": "refund",
      "outputs": [],
      "payable": false,
      "stateMutability": "nonpayable",
      "type": "function"
    },
    {
      "inputs": [
        {
          "name": "_owner",
          "type": "address"
        }
      ],
      "payable": false,
      "stateMutability": "nonpayable",
      "type": "constructor"
    },
    {
      "anonymous": false,
      "inputs": [
        {
          "indexed": false,
          "name": "_uuid",
          "type": "string"
        },
        {
          "indexed": false,
          "name": "_realtor",
          "type": "address"
        }
      ],
      "name": "Registered",
      "type": "event"
    },
    {
      "anonymous": false,
      "inputs": [
        {
          "indexed": false,
          "name": "_uuid",
          "type": "string"
        },
        {
          "indexed": false,
          "name": "_buyer",
          "type": "address"
        },
        {
          "indexed": false,
          "name": "_realtor",
          "type": "address"
        },
        {
          "indexed": false,
          "name": "_amount",
          "type": "uint256"
        }
      ],
      "name": "Deposited",
      "type": "event"
    },
    {
      "anonymous": false,
      "inputs": [
        {
          "indexed": false,
          "name": "_uuid",
          "type": "string"
        },
        {
          "indexed": false,
          "name": "_buyer",
          "type": "address"
        },
        {
          "indexed": false,
          "name": "_realtor",
          "type": "address"
        },
        {
          "indexed": false,
          "name": "_closingAgent",
          "type": "address"
        },
        {
          "indexed": false,
          "name": "_amount",
          "type": "uint256"
        }
      ],
      "name": "Released",
      "type": "event"
    },
    {
      "anonymous": false,
      "inputs": [
        {
          "indexed": false,
          "name": "_uuid",
          "type": "string"
        },
        {
          "indexed": false,
          "name": "_buyer",
          "type": "address"
        },
        {
          "indexed": false,
          "name": "_realtor",
          "type": "address"
        },
        {
          "indexed": false,
          "name": "_amount",
          "type": "uint256"
        }
      ],
      "name": "Refunded",
      "type": "event"
    },
    {
      "anonymous": false,
      "inputs": [
        {
          "indexed": false,
          "name": "_uuid",
          "type": "string"
        },
        {
          "indexed": false,
          "name": "_realtor",
          "type": "address"
        }
      ],
      "name": "Cancelled",
      "type": "event"
    }
  ],
  "bytecode": "0x6060604052341561000f57600080fd5b60405160208061147683398101604052808051906020019091905050806000806101000a81548173ffffffffffffffffffffffffffffffffffffffff021916908373ffffffffffffffffffffffffffffffffffffffff160217905550506113fb8061007b6000396000f300606060405260043610610099576000357c0100000000000000000000000000000000000000000000000000000000900463ffffffff1680630b4f3f3d1461009e57806341c0e1b5146100fb578063470495b21461011057806356fed7541461018c5780636f9fb98a146101fd57806393423e9c14610226578063a26e118614610273578063f2c298be146102c5578063fe5f2e8814610317575b600080fd5b34156100a957600080fd5b6100f9600480803590602001908201803590602001908080601f01602080910402602001604051908101604052809392919081815260200183838082843782019150505050505091905050610374565b005b341561010657600080fd5b61010e610695565b005b341561011b57600080fd5b61018a600480803590602001908201803590602001908080601f0160208091040260200160405190810160405280939291908181526020018383808284378201915050505050509190803573ffffffffffffffffffffffffffffffffffffffff1690602001909190505061072a565b005b341561019757600080fd5b6101e7600480803590602001908201803590602001908080601f01602080910402602001604051908101604052809392919081815260200183838082843782019150505050505091905050610a6b565b6040518082815260200191505060405180910390f35b341561020857600080fd5b610210610b69565b6040518082815260200191505060405180910390f35b341561023157600080fd5b61025d600480803573ffffffffffffffffffffffffffffffffffffffff16906020019091905050610be3565b6040518082815260200191505060405180910390f35b6102c3600480803590602001908201803590602001908080601f01602080910402602001604051908101604052809392919081815260200183838082843782019150505050505091905050610c5f565b005b610315600480803590602001908201803590602001908080601f01602080910402602001604051908101604052809392919081815260200183838082843782019150505050505091905050610ed2565b005b341561032257600080fd5b610372600480803590602001908201803590602001908080601f01602080910402602001604051908101604052809392919081815260200183838082843782019150505050505091905050611106565b005b6000806000339250836040518082805190602001908083835b6020831015156103b2578051825260208201915060208101905060208303925061038d565b6001836020036101000a0380198251168184511680821785525050505050509050019150506040518091039020915060016000836000191660001916815260200190815260200160002090508273ffffffffffffffffffffffffffffffffffffffff168160010160009054906101000a900473ffffffffffffffffffffffffffffffffffffffff1673ffffffffffffffffffffffffffffffffffffffff1614151561045c57600080fd5b6002600381111561046957fe5b8160000160009054906101000a900460ff16600381111561048657fe5b14806104b8575060038081111561049957fe5b8160000160009054906101000a900460ff1660038111156104b657fe5b145b15156104c357600080fd5b60008160000160006101000a81548160ff021916908360038111156104e457fe5b021790555060008160000160016101000a81548173ffffffffffffffffffffffffffffffffffffffff021916908373ffffffffffffffffffffffffffffffffffffffff16021790555060008160010160006101000a81548173ffffffffffffffffffffffffffffffffffffffff021916908373ffffffffffffffffffffffffffffffffffffffff16021790555060008160020160006101000a81548173ffffffffffffffffffffffffffffffffffffffff021916908373ffffffffffffffffffffffffffffffffffffffff160217905550600081600301819055507fd5ef821d514b781472d5e9526a6d9447cc4f14776aa4f0720d9470628d778dfa848460405180806020018373ffffffffffffffffffffffffffffffffffffffff1673ffffffffffffffffffffffffffffffffffffffff168152602001828103825284818151815260200191508051906020019080838360005b83811015610654578082015181840152602081019050610639565b50505050905090810190601f1680156106815780820380516001836020036101000a031916815260200191505b50935050505060405180910390a150505050565b6000809054906101000a900473ffffffffffffffffffffffffffffffffffffffff1673ffffffffffffffffffffffffffffffffffffffff163373ffffffffffffffffffffffffffffffffffffffff161415156106f057600080fd5b6000809054906101000a900473ffffffffffffffffffffffffffffffffffffffff1673ffffffffffffffffffffffffffffffffffffffff16ff5b6000806000806000339450866040518082805190602001908083835b60208310151561076b5780518252602082019150602081019050602083039250610746565b6001836020036101000a0380198251168184511680821785525050505050509050019150506040518091039020935060016000856000191660001916815260200190815260200160002092508473ffffffffffffffffffffffffffffffffffffffff168360010160009054906101000a900473ffffffffffffffffffffffffffffffffffffffff1673ffffffffffffffffffffffffffffffffffffffff1614151561081557600080fd5b6001600381111561082257fe5b8360000160009054906101000a900460ff16600381111561083f57fe5b14151561084b57600080fd5b8260000160019054906101000a900473ffffffffffffffffffffffffffffffffffffffff16915060028360000160006101000a81548160ff0219169083600381111561089357fe5b0217905550858360020160006101000a81548173ffffffffffffffffffffffffffffffffffffffff021916908373ffffffffffffffffffffffffffffffffffffffff160217905550826003015490508573ffffffffffffffffffffffffffffffffffffffff166108fc829081150290604051600060405180830381858888f19350505050151561092257600080fd5b7fec85ddbdf1488e1d91efd9b5d411fce4ab2cc2ee72772ab9a1950f881a3f5095878387898560405180806020018673ffffffffffffffffffffffffffffffffffffffff1673ffffffffffffffffffffffffffffffffffffffff1681526020018573ffffffffffffffffffffffffffffffffffffffff1673ffffffffffffffffffffffffffffffffffffffff1681526020018473ffffffffffffffffffffffffffffffffffffffff1673ffffffffffffffffffffffffffffffffffffffff168152602001838152602001828103825287818151815260200191508051906020019080838360005b83811015610a24578082015181840152602081019050610a09565b50505050905090810190601f168015610a515780820380516001836020036101000a031916815260200191505b50965050505050505060405180910390a150505050505050565b6000806000806000339350856040518082805190602001908083835b602083101515610aac5780518252602082019150602081019050602083039250610a87565b6001836020036101000a0380198251168184511680821785525050505050509050019150506040518091039020925060016000846000191660001916815260200190815260200160002091508373ffffffffffffffffffffffffffffffffffffffff168260010160009054906101000a900473ffffffffffffffffffffffffffffffffffffffff1673ffffffffffffffffffffffffffffffffffffffff16141515610b5657600080fd5b8160030154905080945050505050919050565b60008060009054906101000a900473ffffffffffffffffffffffffffffffffffffffff1673ffffffffffffffffffffffffffffffffffffffff163373ffffffffffffffffffffffffffffffffffffffff16141515610bc657600080fd5b3073ffffffffffffffffffffffffffffffffffffffff1631905090565b60008060009054906101000a900473ffffffffffffffffffffffffffffffffffffffff1673ffffffffffffffffffffffffffffffffffffffff163373ffffffffffffffffffffffffffffffffffffffff16141515610c4057600080fd5b8173ffffffffffffffffffffffffffffffffffffffff16319050919050565b6000806000806000339450349350856040518082805190602001908083835b602083101515610ca35780518252602082019150602081019050602083039250610c7e565b6001836020036101000a03801982511681845116808217855250505050505090500191505060405180910390209250600160008460001916600019168152602001908152602001600020915060006003811115610cfc57fe5b8260000160009054906101000a900460ff166003811115610d1957fe5b141515610d2557600080fd5b8160010160009054906101000a900473ffffffffffffffffffffffffffffffffffffffff16905060018260000160006101000a81548160ff02191690836003811115610d6d57fe5b0217905550848260000160016101000a81548173ffffffffffffffffffffffffffffffffffffffff021916908373ffffffffffffffffffffffffffffffffffffffff1602179055508382600301819055507fa348b54485f1d38cacb4b427a2dbc5bf2067cb3ba1024d6a4213a018939984848686838760405180806020018573ffffffffffffffffffffffffffffffffffffffff1673ffffffffffffffffffffffffffffffffffffffff1681526020018473ffffffffffffffffffffffffffffffffffffffff1673ffffffffffffffffffffffffffffffffffffffff168152602001838152602001828103825286818151815260200191508051906020019080838360005b83811015610e8d578082015181840152602081019050610e72565b50505050905090810190601f168015610eba5780820380516001836020036101000a031916815260200191505b509550505050505060405180910390a1505050505050565b6000806000339250836040518082805190602001908083835b602083101515610f105780518252602082019150602081019050602083039250610eeb565b6001836020036101000a03801982511681845116808217855250505050505090500191505060405180910390209150600160008360001916600019168152602001908152602001600020905060008160000160006101000a81548160ff02191690836003811115610f7d57fe5b0217905550828160010160006101000a81548173ffffffffffffffffffffffffffffffffffffffff021916908373ffffffffffffffffffffffffffffffffffffffff160217905550600081600301819055506000809054906101000a900473ffffffffffffffffffffffffffffffffffffffff1673ffffffffffffffffffffffffffffffffffffffff166108fc349081150290604051600060405180830381858888f19350505050151561103057600080fd5b7f50f74ca45caac8020b8d891bd13ea5a2d79564986ee6a839f0d914896388322d848460405180806020018373ffffffffffffffffffffffffffffffffffffffff1673ffffffffffffffffffffffffffffffffffffffff168152602001828103825284818151815260200191508051906020019080838360005b838110156110c55780820151818401526020810190506110aa565b50505050905090810190601f1680156110f25780820380516001836020036101000a031916815260200191505b50935050505060405180910390a150505050565b6000806000806000339450856040518082805190602001908083835b6020831015156111475780518252602082019150602081019050602083039250611122565b6001836020036101000a0380198251168184511680821785525050505050509050019150506040518091039020935060016000856000191660001916815260200190815260200160002092508473ffffffffffffffffffffffffffffffffffffffff168360010160009054906101000a900473ffffffffffffffffffffffffffffffffffffffff1673ffffffffffffffffffffffffffffffffffffffff161415156111f157600080fd5b600160038111156111fe57fe5b8360000160009054906101000a900460ff16600381111561121b57fe5b14151561122757600080fd5b8260000160019054906101000a900473ffffffffffffffffffffffffffffffffffffffff16915060038360000160006101000a81548160ff0219169083600381111561126f57fe5b0217905550826003015490508173ffffffffffffffffffffffffffffffffffffffff166108fc829081150290604051600060405180830381858888f1935050505015156112bb57600080fd5b7fdc718f88216244ce6f5aa6e9d6645d1e1363a9abf3fa7f56d210ff26dd6a88b88683878460405180806020018573ffffffffffffffffffffffffffffffffffffffff1673ffffffffffffffffffffffffffffffffffffffff1681526020018473ffffffffffffffffffffffffffffffffffffffff1673ffffffffffffffffffffffffffffffffffffffff168152602001838152602001828103825286818151815260200191508051906020019080838360005b8381101561138a57808201518184015260208101905061136f565b50505050905090810190601f1680156113b75780820380516001836020036101000a031916815260200191505b509550505050505060405180910390a15050505050505600a165627a7a7230582032727407622025bfc450d31ab2f32a199955c27c141ee3ce693a553a180e216e0029",
  "source": "pragma solidity ^0.4.18;\r\n\r\n/// @title This contract manages `good-faith` earnest money contracts used in real estate transactions.\r\n/// When a buyer enters into a real estate contract, the realtor will typically request that the buyer \r\n/// deposit a sum of money as good faith (typically 1% of the sales price) to help convince the seller \r\n/// that the buyer is serious about the purchase. Currently, this means that:\r\n/// 1) The buyer writes a check to the realtor\r\n/// 2) The realtor holds the check until the seller agrees to the terms of the real estate contract.\r\n/// 3) The realtor deposits the check into a bank account.\r\n/// 4) The realtor writes a check to the closing agent (typically an attorney) and brings it to closing.\r\n/// 5) The closing agent deposits the check into a bank account.\r\n/// If, for some reason, the real estate contract becomes invalid, the realtor needs to refund the \r\n/// money to the buyer either by returning the buyer's check or by writing a new check to the buyer.\r\n/// This manual movement of writing and depositing checks can be easily be automated using a smart contract.\r\ncontract EarnestMoney{\r\n\r\n    enum Stages {\r\n        Empty,\r\n        Funded,\r\n        Released,\r\n        Refunded\r\n    }\r\n\r\n    struct Agreement {\r\n        Stages stage;\r\n        address buyer;\r\n        address realtor;\r\n        address closingAgent;\r\n        uint256 amount;\r\n    }\r\n\r\n    address internal owner;\r\n    mapping(bytes32 => Agreement) internal agreements;\r\n\r\n    event Registered(string _uuid, address _realtor);\r\n    event Deposited(string _uuid, address _buyer, address _realtor, uint256 _amount);\r\n    event Released(string _uuid, address _buyer, address _realtor, address _closingAgent, uint256 _amount);\r\n    event Refunded(string _uuid, address _buyer, address _realtor, uint256 _amount);\r\n    event Cancelled(string _uuid, address _realtor);\r\n\r\n    modifier onlyOwner() { require(msg.sender == owner); _; }\r\n\r\n    /// @notice Creates instance of EarnestMoney smart contract on the blockchain.\r\n    /// @param _owner Address of the contract owner\r\n    function EarnestMoney(address _owner) public {\r\n            owner = _owner;\r\n    }\r\n\r\n    /// @notice Register an agreement. This action identifies the realtor\r\n    /// who will manage the earnest money for a specific real estate contract.\r\n    /// The realtor is charged an initial fee as part of the registration   \r\n    /// process to cover the owner's expenses.\r\n    /// This function fires the `Registered` event upon successful completion. \r\n    /// Agreement state is changed to `Empty` allowing funds to be deposited.\r\n    /// @param uuid Unique string that identifies this earnest money agreement to the outside world\r\n    /// @dev uuid format is string `123e4567-e89b-12d3-a456-556642440000`\r\n    function register(string uuid) public payable {\r\n        address _realtor = msg.sender;\r\n        bytes32 agreementKey = keccak256(uuid);\r\n        Agreement storage agreement = agreements[agreementKey];\r\n        agreement.stage = Stages.Empty;\r\n        agreement.realtor = _realtor;\r\n        agreement.amount = 0;\r\n        owner.transfer(msg.value);\r\n        Registered(uuid, _realtor);\r\n    }\r\n\r\n    /// @notice Deposit the earnest money sent by the buyer with this transaction   \r\n    /// into the balance of the agreement. Actual funds remain in the contract balance until  \r\n    /// the realtor either releases them to the closing agent or refunds them to the buyer.\r\n    /// The agreement state must be `Empty` in order to release.\r\n    /// This function fires the `Deposited` event upon successful completion. \r\n    /// Agreement state is changed to `Funded` restricting further activity to either release or refund.\r\n    /// @param uuid Unique string that identifies this earnest money agreement to the outside world\r\n    /// @dev uuid format is string `123e4567-e89b-12d3-a456-556642440000`\r\n    function deposit(string uuid) public payable {\r\n        address _buyer = msg.sender;\r\n        uint256 _amount = msg.value;\r\n        bytes32 agreementKey = keccak256(uuid);\r\n        Agreement storage agreement = agreements[agreementKey];\r\n        require(agreement.stage == Stages.Empty);\r\n        address _realtor = agreement.realtor;\r\n        agreement.stage = Stages.Funded;\r\n        agreement.buyer = _buyer;\r\n        agreement.amount = _amount;\r\n        Deposited(uuid, _buyer, _realtor, _amount);\r\n    }\r\n\r\n    /// @notice Query the deposit amount held by the agreement. This function can  \r\n    /// only be executed by the Realtor. \r\n    /// @param uuid Unique string that identifies this earnest money agreement to the outside world\r\n    /// @dev uuid format is string `123e4567-e89b-12d3-a456-556642440000`\r\n    /// @return The amount of earnest money deposited\r\n    function getDepositAmount(string uuid) public view returns (uint256) {\r\n        address _realtor = msg.sender;\r\n        bytes32 agreementKey = keccak256(uuid);\r\n        Agreement storage agreement = agreements[agreementKey];\r\n        require(agreement.realtor == _realtor);\r\n        uint256 _amount = agreement.amount;\r\n        return _amount;\r\n    }\r\n\r\n    /// @notice Release the buyer's earnest money to the closing agent. This action transfers \r\n    /// funds held in the contract balance to the closing agent. The agreement state must be \r\n    /// `Funded` in order to release. This function can only be executed by the Realtor and\r\n    ///  fires the `Released` event upon successful completion. Agreement state is changed to \r\n    /// `Released` effectively prohibiting any future unauthorized fund transfers.\r\n    /// @param uuid Unique string that identifies this earnest money agreement to the outside world\r\n    /// @dev uuid format is string `123e4567-e89b-12d3-a456-556642440000`\r\n    /// @param _closingAgent Address of the closing agent\r\n    function release(string uuid, address _closingAgent) public {\r\n        address _realtor = msg.sender;\r\n        bytes32 agreementKey = keccak256(uuid);\r\n        Agreement storage agreement = agreements[agreementKey];\r\n        require(agreement.realtor == _realtor);\r\n        require(agreement.stage == Stages.Funded);\r\n        address _buyer = agreement.buyer;\r\n        agreement.stage = Stages.Released;\r\n        agreement.closingAgent = _closingAgent;\r\n        uint256 _amount = agreement.amount;\r\n        _closingAgent.transfer(_amount);\r\n        Released(uuid, _buyer, _realtor, _closingAgent, _amount);\r\n    }\r\n\r\n    /// @notice Refund the buyer's earnest money. This action \r\n    /// transfers funds held in the contract balance to the buyer. \r\n    /// The agreement state must be `Funded` in order to refund. \r\n    /// This function can only be executed by the Realtor and fires the `Refunded`  \r\n    /// event upon successful completion. Agreement state is changed to `Finished`\r\n    /// effectively prohibiting any future unauthorized fund transfers.\r\n    /// @param uuid Unique string that identifies this earnest money agreement to the outside world\r\n    /// @dev uuid format is string `123e4567-e89b-12d3-a456-556642440000`\r\n     function refund(string uuid) public {\r\n        address _realtor = msg.sender;\r\n        bytes32 agreementKey = keccak256(uuid);\r\n        Agreement storage agreement = agreements[agreementKey];\r\n        require(agreement.realtor == _realtor);\r\n        require(agreement.stage == Stages.Funded);\r\n        address _buyer = agreement.buyer;\r\n        agreement.stage = Stages.Refunded;\r\n        uint256 _amount = agreement.amount;\r\n         _buyer.transfer(_amount);\r\n        Refunded(uuid, _buyer, _realtor, _amount);\r\n    }\r\n\r\n    /// @notice Cancel an agreement. This function can only be executed by the Realtor\r\n    /// and fires the `Cancelled` event upon successful completion..\r\n    /// The agreement state must be either `Released` or `Refunded` in order to cancel.\r\n    /// The agreement is reset to default values and could possibly (although unlikely) be reused.\r\n    /// @param uuid Unique string that identifies this earnest money agreement to the outside world\r\n    /// @dev uuid format is string `123e4567-e89b-12d3-a456-556642440000`\r\n    function cancel(string uuid) public {\r\n        address _realtor = msg.sender;\r\n        bytes32 agreementKey = keccak256(uuid);\r\n        Agreement storage agreement = agreements[agreementKey];\r\n        require(agreement.realtor == _realtor);\r\n        require(agreement.stage == Stages.Released || agreement.stage == Stages.Refunded);\r\n        agreement.stage = Stages.Empty;\r\n        agreement.buyer = 0x00;\r\n        agreement.realtor = 0x00;\r\n        agreement.closingAgent = 0x00;\r\n        agreement.amount = 0;\r\n        Cancelled(uuid, _realtor);\r\n    }\r\n\r\n    /// @notice Kill the EarnestMoney contract instance which removes it from the blockchain. \r\n    /// This function can only be executed by the owner.\r\n    function kill() public onlyOwner {\r\n        selfdestruct(owner);\r\n    }\r\n\r\n    //  @notice Query an account balance. \r\n    /// This function can only be executed by the owner.\r\n    /// @param account Address of account\r\n    /// @return The amount of ether in the account balance\r\n    function getAccountBalance(address account) public view onlyOwner returns (uint256) {\r\n        return account.balance;\r\n    }\r\n\r\n    /// @notice Query the contract balance. \r\n    /// This function can only be executed by the owner.\r\n    /// @return The amount of ether in the contract balance\r\n    function getContractBalance() public view onlyOwner returns (uint256) {\r\n        return this.balance;\r\n    }\r\n}",
  "sourcePath": "C:\\Users\\Jimmy\\ws_2018_interview\\sourceCode\\EarnestMoney\\contracts\\EarnestMoney.sol",
  "compiler": {
    "name": "solc",
    "version": "0.4.18+commit.9cf6e910.Emscripten.clang"
  },
  "schemaVersion": "1.0.1",
  "updatedAt": "2018-01-15T18:42:23.998Z"
}